:020000040001F9
:10D00000A03A0020D1EE0100EBEE0100EDEE0100B0
:10D010000000000000000000000000000000000010
:10D02000000000000000000000000000EFEE010022
:10D030000000000000000000F1EE0100F3EE01002E
:10D04000F5EE0100F5EE010013450200F5EE0100DA
:10D05000F5EE010000000000C1580200F5EE0100ED
:10D06000F5EE0100F5EE0100F5EE0100F5EE010030
:10D07000F5EE0100F5EE0100F5EE0100F5EE010020
:10D08000F5EE0100A3640200F5EE0100F5EE0100EB
:10D09000C5640200F5EE0100776A0200F5EE0100BA
:10D0A000F5EE0100F5EE01000000000000000000B8
:10D0B0000000000000000000000000000000000070
:10D0C0000348854609F09EFD004800470BE6010035
:10D0D000A03A0020401E00BF00BF00BF00BF00BF3D
:10D0E00000BF00BF00BF00BF00BF00BF00BFF1D145
:10D0F0007047000070B505460C4616462B46224682
:10D100003146FBA009F0CEFD172001F0D6FA00E071
:10D1100000BF002CFCD170BD70B504460D462A46F8
:10D120002146FD48FFF7E6FF70BD30B595B0684673
:10D1300008F0F8F9044600BF2546002D06D000BFD0
:10D14000002211462846FFF7D5FF00BF00BF009818
:10D15000002804D00120F149087015B030BD082125
:10D1600010A801720021017409A8119001A8139060
:10D1700011A9EB4803F0D2F9044600BF2546002D63
:10D1800006D000BF002211462846FFF7B3FF00BFBC
:10D1900000BF10A8007A002803D110A8007C002846
:10D1A00003D0E0480078012813D0DF480078400819
:10D1B0004000DD4908700846007802218843DA49BA
:10D1C0000870A02008815020488100204860888194
:10D1D00017E0D548007840084000D3490870084659
:10D1E000007802218843801CCF490870A020088164
:10D1F0005020488111A848601E2088810120C9491B
:10D200000870C94886DF04462146C8A009F04AFDD7
:10D2100000BF2546002D06D000BF0022114628463B
:10D22000FFF768FF00BF00BF0120CA490870152042
:10D2300001F048FA00BF90E7F7B584B007461546FD
:10D240000598007815287DD008DC11280DD012280B
:10D2500048D013285FD0142875D17AE0212873D0E4
:10D26000222872D02328F7D1B7E0BBA009F01AFD1D
:10D2700005984068861CB0797179327900920191E5
:10D280000290F378B2787178BB4809F00BFD162054
:10D2900001F018FA04223946B84809F03DFC059817
:10D2A00040680188B64806F02EFE044600BF03948D
:10D2B000039C002C06D000BF002211460398FFF704
:10D2C00019FF00BF00BFAF480078401CAD4908708F
:10D2D00008460078012801DAFFF727FFAAA009F025
:10D2E000E1FC8EE0B0A009F0DDFC6221A44809F069
:10D2F0003AFC162001F0E1F9A2480078012801D19A
:10D30000FFF713FF9F480078401E9E490870AFA0AA
:10D3100009F0C8FC75E07978B5A009F0C3FC97481E
:10D3200002F0EEFF044600BF2646002E06D000BFE6
:10D33000002211463046FFF7DDFE00BF00BF7978BE
:10D34000B6A003E01CE05BE021E033E009F0AAFCBA
:10D3500057E0BDA009F0A6FCC64805F09DF90446BB
:10D3600000BF2646002E06D000BF002211463046E0
:10D37000FFF7C0FE00BF00BFBFA009F093FC40E074
:10D38000C8A009F08FFCD0A009F08CFC39E0D7A030
:10D3900009F088FC00BF2E46002E06D000BF0022F8
:10D3A00011463046FFF7A6FE00BF00BFD8A009F027
:10D3B00079FC26E0E1A009F075FC00BF2E46002EA6
:10D3C00006D000BF002211463046FFF793FE00BF93
:10D3D00000BFE5A009F066FC13E0EEA009F062FCD6
:10D3E00000BF2E46002E06D000BF00221146304658
:10D3F000FFF780FE00BF00BFF1A009F053FC00E082
:10D4000000BF00BF002007B0F0BDF0B505460B46D9
:10D4100000211C680EE0665C481C275CAF4206D108
:10D42000881C20181060701E90800020F0BD701CB9
:10D43000091800BF98888842EDD80520F6E770B536
:10D44000EA4873DF044600BF2546002D06D000BF22
:10D45000002211462846FFF74DFE00BF00BF002006
:10D46000E3490870172001F02DF970BDF0B585B0C3
:10D470000646351D3088192834D006DC10280BD01C
:10D48000112830D013282FD1FEE11B2811D01D28E0
:10D490002BD05228F7D12CE2307D012808D118205A
:10D4A00001F010F9172001F008F9B088D14908807F
:10D4B00047E228460B300390A87AC00869460882E4
:10D4C00001AA03A90220FFF7A0FF0446002C05D003
:10D4D00001AA03A90320FFF798FF0446002C05D1F9
:10D4E0000027C7E1D8E118E22AE2F1E1CBE1000030
:10D4F0005B4150504C5D3A204153534552543A20C1
:10D5000025732C2025642C206572726F7220307870
:10D51000253038780D0A0000EFBEADDE3928002036
:10D520003228002038280020C02A00205B415050BB
:10D530004C5D3A205363616E207374617274206590
:10D5400072726F7220636F64653A2030782578209C
:10D550000D0A0000312800205B4150504C5D3A20FC
:10D560003E3E20444D5F4556545F434F4E4E45432B
:10D5700054494F4E0D0A0000F87102003328002074
:10D58000442A0020372800205B4150504C5D3A204F
:10D590003C3C20444D5F4556545F434F4E4E4543FF
:10D5A00054494F4E0D0A00005B4150504C5D3A20EB
:10D5B0003E3E20444D5F4556545F444953434F4ED1
:10D5C0004E454354494F4E0D0A0000005B415050F8
:10D5D0004C5D3A203C3C20444D5F4556545F4449E5
:10D5E00053434F4E4E454354494F4E0D0A000000E1
:10D5F0005B4150504C5D3A5B3078253032585D20AD
:10D600003E3E20444D5F4556545F53454355524975
:10D6100054595F53455455500D0A00005B4150501A
:10D620004C5D3A5B3078253032585D203C3C2044DC
:10D630004D5F4556545F53454355524954595F53C6
:10D64000455455500D0A00005B4150504C5D3A2046
:10D650003E3E20444D5F4556545F53454355524925
:10D6600054595F53455455505F434F4D504C4554AA
:10D67000450D0A00A82A00205B4150504C5D3A201D
:10D680003C3C20444D5F4556545F534543555249F9
:10D6900054595F53455455505F434F4D504C45547A
:10D6A000450D0A005B4150504C5D3A203E3E2044FF
:10D6B0004D5F4C494E4B5F534543555245445F497E
:10D6C0004E440D0A000000005B4150504C5D3A2072
:10D6D0003C3C20444D5F4C494E4B5F5345435552B3
:10D6E00045445F494E440D0A000000005B41505024
:10D6F0004C5D3A203E3E20444D5F4556545F4C49B8
:10D700004E4B5F534543555245440D0A00000000FF
:10D710005B4150504C5D3A203C3C20444D5F4556A7
:10D72000545F4445564943455F434F4E5445585412
:10D730005F4C4F414445440D0A0000005B4150508E
:10D740004C5D3A203E3E20444D5F4556545F444573
:10D75000564943455F434F4E544558545F53544FC9
:10D760005245440D0A0000005B4150504C5D3A2088
:10D770003C3C20444D5F4556545F44455649434523
:10D780005F434F4E544558545F53544F5245440DD8
:10D790000A0000005B4150504C5D3A203E3E204460
:10D7A0004D5F4556545F4445564943455F434F4E90
:10D7B000544558545F44454C455445440D0A0000B7
:10D7C0005B4150504C5D3A203C3C20444D5F4556F7
:10D7D000545F4445564943455F434F4E5445585462
:10D7E0005F44454C455445440D0A000094290020EF
:10D7F000302800200028002000BF79000198401840
:10D800004078009000980002009079000198405CF8
:10D8100000990843009000BFFAA0009909F042FA6D
:10D82000FC490098884224D10D2171563120C04313
:10D8300081421DDB87DF0446002C03D02146F6A081
:10D8400009F030FA0020FE490870152000F035FF7D
:10D85000FC48007802218843FA490870FA4AA81C5B
:10D8600088DF0446002C03D02146F8A009F01AFAFC
:10D8700007E07F1C69460889C10F09184910B942A1
:10D88000BAD800BF00BF5CE00023FC4A1946FC4840
:10D8900000887FDF044600BF2888F949098888424C
:10D8A00015D0A87802280CD1F6A009F0FBF9FC48A5
:10D8B000007801280BD10220F9490870FFF735FCE8
:10D8C00005E0A878032802D1F6A009F0EBF938E0CA
:10D8D0002888A91C75DF044600BF2746002F06D004
:10D8E00000BF002211463846FFF704FC00BF00BF0E
:10D8F00027E0012300221146E1480088A9DF044601
:10D9000000BF2746002F06D000BF00221146384630
:10D91000FFF7F0FB00BF00BF13E02888D849098853
:10D9200088420CD10020C043D5490880182000F05F
:10D93000C4FEE6A009F0B6F90120F149087000E044
:10D9400000BF00BF05B0F0BD10B50446022C02D0E8
:10D95000032C0BD100E000BFEA480078002804D077
:10D960000020E8490870FFF7E0FB00E000BF00BFBF
:10D9700010BD10B504462146C14803F06AFD224699
:10D98000E149BF4806F005FB2146E04804F02FFEC0
:10D990002146DF4804F09DFC2246DE49B84805F0E8
:10D9A000F2F92246DC49B64805F015FE2146B44896
:10D9B00006F06BFC2046FFF759FD10BD10B504467C
:10D9C000204607F01BFA2046FFF7BEFF10BD7CB5CE
:10D9D00000BF00234822D149082009F004F8054679
:10D9E00000BF2E46002E06D000BF00221146304652
:10D9F000FFF780FB00BF00BF00BF00200090019038
:10DA0000012069460870684660DF044600BF25466D
:10DA1000002D06D000BF002211462846FFF76AFB02
:10DA200000BF00BFBE4809F014F8044600BF2546F9
:10DA3000002D06D000BF002211462846FFF75AFBF2
:10DA400000BF00BFB74809F00DF8044600BF2546E7
:10DA5000002D06D000BF002211462846FFF74AFBE2
:10DA600000BF00BF7CBD7FB507F0A2FA044600BF2F
:10DA70002546002D06D000BF002211462846FFF79C
:10DA800039FB00BF00BF6946112000F07AFE044652
:10DA900000BF2546002D06D000BF002211462846B3
:10DAA000FFF728FB00BF00BF684602F075FA044686
:10DAB00000BF2546002D06D000BF00221146284693
:10DAC000FFF718FB00BF00BF052102A8013009F0D5
:10DAD0004AF895480190022168460172407A41084F
:10DAE000490068464172407A0221884301466846EF
:10DAF0004172407A1C21884301460C3168464172CC
:10DB0000407A2021884369464872072101A8817123
:10DB10001021C171007A40084000401C01A9087220
:10DB200001A8007A02218843801C01A908727F485D
:10DB300002F0AAFB044600BF2546002D06D000BF18
:10DB4000002211462846FFF7D5FA00BF00BF7FBD6F
:10DB500010B5152000F0A8FD162000F0A5FD172037
:10DB600000F0A2FD172000F09FFD182000F09CFDA2
:10DB7000152000F0A2FD162000F09FFD172000F0F8
:10DB80009CFD182000F099FD10BD30B51120032137
:10DB90000A4613048C0023430524240707252D027D
:10DBA00064198500635100BF30BD704770B548DF10
:10DBB000044600BF2546002D06D000BF00221146B6
:10DBC0002846FFF797FA00BF00BF70BDF8B50746BB
:10DBD0000D462878012802D0022811D1BEE0544811
:10DBE00002F08EFB044600BF2646002E06D000BF82
:10DBF000002211463046FFF77DFA00BF00BF99E0D2
:10DC0000B5E00000095B4150504C5D3A2025780D8D
:10DC10000A0000000D1800005B4150504C5D3A2096
:10DC20005363616E2073746F70206661696C656404
:10DC30002C20726561736F6E2025640D0A00000050
:10DC400031280020C02A0020747102005B4150502E
:10DC50004C5D3A20436F6E6E656374696F6E20523F
:10DC6000657175657374204661696C65642C2072FA
:10DC70006561736F6E2025640D0A00000228002084
:10DC8000002800205B4150504C5D3A205363616E88
:10DC90002074696D6564206F75742E0D0A00000094
:10DCA000382800205B4150504C5D3A20436F6E6E27
:10DCB000656374696F6E2052657175657374207445
:10DCC000696D6564206F75742E0D0A005B415050BC
:10DCD0004C5D3A20424C455F4741505F4556545F8A
:10DCE000444953434F4E4E45435445443A2064699A
:10DCF00073636F6E6E65637465640D0A00000000E7
:10DD00003028002039280020442A0020A82A00209A
:10DD1000B42A0020C4290020AC290020D02A0020E9
:10DD200073D90100BDD9010039D201003228002089
:10DD300033280020384604F0AFFC044600BF2646D6
:10DD4000002E06D000BF002211463046FFF7D2F960
:10DD500000BF00BFD7A008F0A5FF09E06988DEA0DA
:10DD600008F0A0FF6988E6A008F09CFF00E000BF73
:10DD700000BFF8BDF8B507460C462078002804D04F
:10DD800001282CD002283CD132E0E2A008F08AFF22
:10DD9000EAA008F087FF384604F0D2FA054600BF33
:10DDA0002E46002E06D000BF002211463046FFF757
:10DDB000A1F900BF00BFEAA008F074FF384604F0E4
:10DDC000B3FA054600BF2E46002E06D000BF002243
:10DDD00011463046FFF78EF900BF00BF12E06178B0
:10DDE000EBA008F05FFF6178F3A008F05BFF09E0AB
:10DDF0006178F6A008F056FF6178EFA008F052FFB6
:10DE000000E000BF00BFF8BD38B5FA480090694691
:10DE1000F94804F0CAFB044600BF2546002D06D091
:10DE200000BF002211462846FFF764F900BF00BF7B
:10DE300038BD38B5F14800906946F14804F024FA3D
:10DE4000044600BF2546002D06D000BF0022114623
:10DE50002846FFF74FF900BF00BF38BD70B506F088
:10DE600022F8044600BF2546002D06D000BF002240
:10DE700011462846FFF73EF900BF00BF70BD70474E
:10DE800010B50446FFF7FBFF10BD10B50446DD4892
:10DE90000068401CDB4908600321DA48006808F08C
:10DEA00011FE002901D0012000E00020D6490870B1
:10DEB00010BD70B50546D4480078002809D0D34974
:10DEC000D34808F00DFD84B22146D24805F012F97E
:10DED00000BF70BD10B50446CF480078012148400E
:10DEE000CD49087008460178CA4805F03AF910BDD6
:10DEF000F8B500BF0020C94B05221146009008F07C
:10DF0000E5FA054600BF2E46002E06D000BF0022CF
:10DF100011463046FFF7EEF800BF00BF00BFC04A11
:10DF20000121C04808F04CFB044600BF2546002DE7
:10DF300006D000BF002211462846FFF7DBF800BFDD
:10DF400000BFB94A0121B94808F03AFB044600BFB6
:10DF50002546002D06D000BF002211462846FFF7B7
:10DF6000C9F800BF00BFB24A0121B24808F028FB3F
:10DF7000044600BF2546002D06D000BF00221146F2
:10DF80002846FFF7B7F800BF00BFAB4A0121AB48F6
:10DF900008F016FB044600BF2546002D06D000BF42
:10DFA000002211462846FFF7A5F800BF00BFF8BDC4
:10DFB0003EB500BF6846007801090901491C00917F
:10DFC00068460078F02188431030009000BF04229A
:10DFD0009BA168467CDF044600BF2546002D06D085
:10DFE00000BF002211462846FFF784F800BF00BF9B
:10DFF000954878DF044600BF2546002D06D000BFB7
:10E00000002211462846FFF775F800BF00BF002028
:10E0100001900290FF219131684681804900C180C2
:10E0200000210181FF219131418101A87ADF04465D
:10E0300000BF2546002D06D000BF0022114628460D
:10E04000FFF758F800BF00BF3EBD70B590B0062680
:10E050007E4A07CA01AB07C3302104A808F083FD3C
:10E0600002216846017401218174C6740321018470
:10E0700001A90991002104A804F0EAFD044600BFAB
:10E080002546002D06D000BF002211462846FFF786
:10E0900031F800BF00BF18216D4808F064FD002072
:10E0A0006B49087048600872282008820020488266
:10E0B00010B070BD48656172742072617465207320
:10E0C00065727669636520646973636F76657265EE
:10E0D00064200D0A000000005B4150504C5D3A2066
:10E0E0004852204D6561737572656D656E7420725E
:10E0F00065636569766564202564200D0A0000006B
:10E1000048656172742052617465203D2025640D5C
:10E110000A0000005B4150504C5D3A20426174742B
:10E1200065727920536572766963652064697363EB
:10E130006F76657265642E200D0A00005B415050B9
:10E140004C5D3A2052656164696E67206261747447
:10E15000657279206C6576656C2E200D0A000000D2
:10E160005B4150504C5D3A20456E61626C696E6750
:10E170002042617474657279204C6576656C204E1E
:10E180006F74696669636174696F6E2E200D0A0091
:10E190005B4150504C5D3A20426174746572792045
:10E1A0004C6576656C2072656365697665642025CB
:10E1B000642025250D0A000042617474657279207F
:10E1C0003D2025642025250D0A0000005B415050AC
:10E1D0004C5D3A2042617474657279204C657665B5
:10E1E0006C20526561642061732025642025250D13
:10E1F0000A000000CDDB0100A82A002075DD010027
:10E20000B42A00203C28002007280020342A0020BF
:10E2100018280020C429002040280020182B0020A6
:10E2200081DE0100202800208BDE01002428002050
:10E23000B3DE010028280020D5DE01002C280020B4
:10E240005331333000000000410300007C710200B4
:10E250009429002030B59BB003210091142116A809
:10E2600008F081FC00201690012110A80177684673
:10E27000189000BF18A8007901090901491C18A8C5
:10E2800001710079F0218843103018A9087100BF8E
:10E2900000BF16A8407B0009000116A9487316A804
:10E2A000407BF021884316A9487300BF00BF16A821
:10E2B000807B00090001887316A8807BF0218843C9
:10E2C00016A9887300BF00BF18A8C0790109090109
:10E2D000491C18A8C171C079F0218843103018A9D1
:10E2E000C87100BF00BF16A8007C0009000116A974
:10E2F000087416A8007CF021884316A9087400BF92
:10E30000F34804F092FE044600BF2546002D06D0D7
:10E3100000BF002211462846FEF7ECFE00BF00BFFA
:10E32000142111A808F01FFC00BF10A8407C0109AF
:10E330000901491C10A84174407CF0218843103029
:10E3400010A9487400BF00BF11A8807B000900011C
:10E35000401C11A9887311A8807BF02188431030DC
:10E3600011A9887300BF00BF11A8C07B000900017C
:10E37000401CC87311A8C07BF0218843103011A93C
:10E38000C87300BF00BF10A8007D01090901491C26
:10E3900010A80175007DF0218843103010A9087580
:10E3A00000BF00201190012110A8017200201390DD
:10E3B000642110A8017411A9C64805F01DFA04468D
:10E3C00000BF2546002D06D000BF0022114628467A
:10E3D000FEF790FE00BF00BF402101A808F0C3FB7C
:10E3E000BDA101A800F023FE00BF10A8007801091C
:10E3F0000901491C10A801700078F02188431030F1
:10E4000010A9087000BF00BF10A8407800090001E3
:10E41000487010A84078F021884310A9487000BFC8
:10E4200001A804F0C6FF044600BF2546002D06D013
:10E4300000BF002211462846FEF75CFE00BF00BF69
:10E440001BB030BD10B55120A84908606420486059
:10E45000012088600873A64808F035FA8C20A54989
:10E460000860FF202D3048600A2088600020087373
:10E47000A14808F028FA6420A0490860FF20F53080
:10E48000486001208860002008739D4808F01BFA4E
:10E4900010BD10B5044600BF002211462046FEF70D
:10E4A00029FE00BF10BD70B505462878002810D1A0
:10E4B0003B219448008876DF044600BF2646002EA4
:10E4C00006D000BF002211463046FEF713FE00BF03
:10E4D00000BF70BD30B587B01C21684608F043FB13
:10E4E000002000900520C00301900290032168469F
:10E4F0000173774881896846C1810021017482488F
:10E50000059082480690684605F0EBFD044600BF82
:10E510002546002D06D000BF002211462846FEF7F2
:10E52000E9FD00BF00BF07B030BD79480078400862
:10E530004000401C76490870084600780221884354
:10E5400073490870084600781C2188430C307049D4
:10E55000087008460078202188436D49087007201C
:10E56000487010208870704770B50022012109049E
:10E570006848006808F06BF8044600BF2546002D87
:10E5800006D000BF002211462846FEF7B3FD00BFAB
:10E5900000BF00220121C9035F48006808F057F856
:10E5A000044600BF2546002D06D000BF00221146BC
:10E5B0002846FEF79FFD00BF00BF0022574958487C
:10E5C000006808F044F8044600BF2546002D06D038
:10E5D00000BF002211462846FEF78CFD00BF00BF99
:10E5E00000220521C9034F48006808F030F80446AE
:10E5F00000BF2546002D06D000BF00221146284648
:10E60000FEF778FD00BF00BF70BD08F008F9FFF706
:10E610009FFAFFF7BAFAFFF7DAF9FFF724FAFFF7E4
:10E620001DFCFFF7F1FBFFF704FC3FA008F03AFBED
:10E63000FFF75EFCFFF7BCFCFFF707FDFFF70AFEE4
:10E64000FFF700FFFFF746FFFFF76FFFFFF78CFFB5
:10E65000FEF7F5FEFEF769FD00203949087000BF9E
:10E66000FFF7A4FA364800780128F9D13548007838
:10E67000012810D187DF044600BF2546002D06D0B3
:10E6800000BF002211462846FEF734FD00BF00BF40
:10E69000152000F012F8FEF7D2FE2A480078012873
:10E6A000DED1FEF742FDDBE7032105221207072337
:10E6B0001B02D2188300D150704701218140224AA9
:10E6C00091607047012181401F4AD160704700006E
:10E6D000C4290020AC2900204E6F72646963536521
:10E6E0006D69636F6E647563746F7200142A002025
:10E6F00008280020242A002010280020342A002086
:10E700001828002000280020A7E4010093E401005D
:10E71000022800202028002024280020662600004F
:10E72000282800202C2800205B4150504C5D3A20C6
:10E730005374617274696E672E200D0A0000000028
:10E7400030280020312800200005005030B5014657
:10E75000002000240C60FC4C2469E34300220DE0FF
:10E760009400FA4D2D5D0124AC401C40002C04D0D7
:10E77000012595400C682C430C60521C042AEFD3F1
:10E7800030BD10B50246042A0FD2EF4B1B69D843A7
:10E790009300EE4CE45C0123A3400340002B01D026
:10E7A000012300E000230B7001E00020087000202E
:10E7B00010BDF8B505460E4600270024012E16D1DF
:10E7C000E3480068002812D000E0641C042C04D246
:10E7D000A000DE490858A842F7D1042C01D2DD4838
:10E7E000075D002F03D03846D94909688847F8BD2E
:10E7F000F8B5044600250026230008F063FA180D3A
:10E8000018195C9FF7F5F4F3F2F1F0EFEEEDECEB95
:10E81000EAE9E8E7E6E5E4E300BF0B204005CA4982
:10E8200088600020C86000BFCB48047052E200BF7F
:10E8300000BF05208005C44988600020C86000BF73
:10E84000084640680F214905484001214905084014
:10E8500000280FD000BF0846BB4988600020C86070
:10E8600000BF022C02D1E120C00001E07D20400168
:10E8700006460EE000BF01204005B349C8600020F5
:10E88000886000BF022C01D1C82001E0FF20913038
:10E890000646B14804706421304608F013F9AF49C8
:10E8A00009684843074600223946AD48006807F02A
:10E8B000CEFE05460EE200BF05208005A249886015
:10E8C0000020C86000BF084640680F214905484045
:10E8D00001214905084000280FD000BF08469A4989
:10E8E00088600020C86000BF032C02D119204001BD
:10E8F00001E07D20400106460EE000BF01204005FA
:10E900009149C8600020886000BF032C01D1C82055
:10E9100001E0FF20913006468F48047064213046A4
:10E9200008F0D0F88D490968484307460022394667
:10E930008B48006807F08BFE0546CBE100BF052041
:10E940008005814988600020C86000BF0846406893
:10E950000F214905484001214905084000280FD0F2
:10E9600000BF0846784988600020C86000BF042CBA
:10E9700002D17D20400101E07D20400106460FE0EC
:10E9800000BF012040057049C8600020886000BFBA
:10E99000042C02D1FF20913001E0FF209130064687
:10E9A0006D4804706421304608F08CF86B490968A2
:10E9B00048430746002239466948006807F047FE89
:10E9C000054687E185E179E177E164E151E13EE1E6
:10E9D00032E102E100E1FEE0FCE0FAE0F0E0D7E045
:10E9E000C0E099E082E06FE042E0FFE700BF052071
:10E9F0008005554988600020C86000BF084640680F
:10EA00000F214905484001214905084000280ED042
:10EA100000BF08464C4988600020C86000BF052C34
:10EA200001D1C82001E07D20400106460EE000BF74
:10EA3000012040054449C8600020886000BF052CC3
:10EA400001D1C82001E0FF20913006464248047001
:10EA50006421304608F036F84049096848430746C3
:10EA6000002239463E48006807F0F1FD054631E1D5
:10EA700000BF05208005344988600020C86000BFC1
:10EA8000084640680F2149054840012149050840D2
:10EA9000002806D000BF08462B4988600020C860C7
:10EAA00007E000BF012040052749C86000208860BA
:10EAB00000BF2948047029480022016828480068DE
:10EAC00007F0C5FD054605E100BF052080051E498C
:10EAD00088600020C86000BF00BF01204005C860FA
:10EAE0000020886000BF1C480470F3E000BF164996
:10EAF0004868012189058143134A916001218905F4
:10EB00000140D16000BF1548002201681448006828
:10EB100007F09DFD0546DDE000BF0B494868012177
:10EB200089058143084A9160012189050140D1602E
:10EB300000BF0A4800688200811800220848006867
:10EB400007F085FD0546C5E000050050887102000C
:10EB5000582800205C280020442800204828002055
:10EB60005028002000BFCD49486801218905814314
:10EB7000CA4A9160012189050140D16000BFC8489F
:10EB800000220168C748006807F061FD0546A1E062
:10EB900000BFC2494868012189058143BF4A91608D
:10EBA000012189050140D16000BFBD480068820095
:10EBB00081180022BB48006807F049FD054689E03E
:10EBC00000BF0F204005B549C8600020886000BF25
:10EBD00080E000BF00BF00BF00BFB348006807F07F
:10EBE00067FD05461120061B002E1CD0002D1AD1F2
:10EBF000012E10D9C82171430846642107F062FF35
:10EC0000A74909684843074600223946A6480068D4
:10EC100007F01DFD054600BF0120C0059F49C860E3
:10EC20000020886007E000BF0120C0059B49886084
:10EC30000020C86000BF4DE000BF0F20400597498D
:10EC400088600020C86000BF9848047042E000BFA0
:10EC500007208005914988600020C86000BF00BF80
:10EC600001204005C8600020886000BF8F48047004
:10EC700030E000BF0D204005884988600020C86052
:10EC800000BF00BF01208005C8600020886000BF71
:10EC9000864804701EE000BF0320C0057F498860DD
:10ECA0000020C86000BF00BF03204005C8600020EE
:10ECB000886000BF7D4804700CE000BF00BF0F20DB
:10ECC00040057649C8600020886000BF774804701E
:10ECD00000E000BF00BF2846F8BD10B504467448E8
:10ECE0000078C007C00F002803D070480078FFF7F5
:10ECF0007FFD10BD014600BF684A50680122D20561
:10ED00008243664B9A600122D2050240DA6000BF5E
:10ED1000704770B50446002565480078C007C00FED
:10ED2000002803D02046FFF763FD0546284670BD46
:10ED300070B504460D462046FFF7EBFF0646294610
:10ED40005CA007F0AFFF304670BD02460020042AE9
:10ED500002D2594B995400E007207047F7B5054699
:10ED60000F4600244E4807605148056053490298F9
:10ED700008600220284000281BD0002607E030460B
:10ED80000B30C1B23046FFF7E0FF0446761C042E7C
:10ED900001D2002CF3D0002C05D17A080421484878
:10EDA00006F058FC0446002C02D106F090FC044604
:10EDB00000BFE807C00F00280AD000BF0F204005A1
:10EDC000364988600020C86000BF0F204005886178
:10EDD000002C05D13B4A0021324807F0F1FB0446E4
:10EDE000002C05D1384A01212F4807F0E9FB0446E1
:10EDF0002046FEBD30B5034600224AE09000334C69
:10EE00002158012090401840002822D005200007FA
:10EE10000724240200198C00005903242404A04371
:10EE20000524240707252D0264198D006051052053
:10EE300000070724240200198C000059032424042D
:10EE400020430524240707252D0264198D006051F5
:10EE50001EE0052000070724240200198C00005939
:10EE600003242404A0430524240707252D02641944
:10EE70008D006051052000070724240200198C0032
:10EE800000590524240707252D0264198D006051BF
:10EE9000521C042AB2D3002030BD000000050050EF
:10EEA0004828002050280020542800204428002012
:10EEB0004C280020257300005C28002058280020E2
:10EEC00098710200DBEC0100F5EC01008871020092
:10EED0000321094802680A430260084802680A439D
:10EEE00002600748804707480047FEE7FEE7FEE765
:10EEF000FEE7FEE7FEE70000240500405405004061
:10EF0000ADEF0100C1D001003248334908607047BD
:10EF10003248008CC0B2012812D13048808C0007E2
:10EF2000000F00280CD12D48806AF02108404028AD
:10EF300006D12A48C06A0840002801D10120704744
:10EF40000020FCE72548008CC0B201282CD12348C2
:10EF5000808C0007000F002826D12048806AF0210D
:10EF60000840002806D11D48C06A0840002801D189
:10EF7000012070471948806AF0210840102806D106
:10EF80001648C06A0840002801D10120F1E7134863
:10EF9000806AF0210840302806D11048C06A084035
:10EFA000002801D10120E4E70020E2E710B5FFF7D7
:10EFB000C9FF002805D00A480A494860C8130A4911
:10EFC0008861FFF7A5FF002802D00120074988606B
:10EFD00010BD00000024F40060280020C00F00F0E5
:10EFE000DFFF07C000050040006C00400006004045
:10EFF000F8B505460E46002432782146641C6A5452
:10F0000072782146641C6A5400BF022C01D1012091
:10F0100000E000200746002F06D100BF0022114665
:10F020001046FEF767F800BF00BF2046F8BD70B578
:10F0300004460D46284607F0A1FD2080656070BD9E
:10F0400010B504462146E4A007F02CFE01210C2057
:10F050006043EE4A80188172891E0C20604380183C
:10F060000181FF210C2060438018C1720C21614393
:10F070008818072107F077FD10BD10B5044621461A
:10F08000E3A007F00FFE18216143EC4A89180846F7
:10F090001130062107F067FD18206043E74940184A
:10F0A0000021016041608160C160FF211820604340
:10F0B000E24A80180174182060438018C175204608
:10F0C00002F0A1FD0020A100DD4A505010BD70B536
:10F0D00003460C460820002115E00C254D43CB4E7D
:10F0E000AD19AD7A2540002D0CD0D64DAB4205D0E0
:10F0F0000C254D43AD192D899D4202D11160002090
:10F1000003E00520491C0029E7D000BF70BDF0B521
:10F1100085B005460E46CC48039000245EE01820DA
:10F120006043C6494018027C2146C8A007F0BAFDDA
:10F1300018206043C1494018817D18206043BF4AB0
:10F140008018427D18206043BC4BC018007D01929E
:10F1500002910090182060431F46C019C37C1820FC
:10F160006043C019827C18206043C019417CC1A053
:10F1700007F098FD1820604339464018C07DFF28ED
:10F180002BD13078022814D0182060434018C07D5D
:10F1900002218843182161433A468918C87518210D
:10F1A00061438918084610300722314607F0B4FC45
:10F1B0000BE018206043A1494018C07D4108490078
:10F1C000182060439D4A8018C1752C700020039060
:10F1D0002146B8A007F066FD02E0641C072C9ED310
:10F1E00000BF039805B0F0BD7CB50446A1B26A46E5
:10F1F000BB4805F0B6FF0546002D0DD12146B9A04C
:10F2000007F050FD5C21684606F039F90546002DEF
:10F2100002D12046FFF731FF28467CBDF0B585B00E
:10F2200005460E4605200390A87969792A7900924F
:10F2300001910290EB78AA786978B44807F032FD22
:10F2400000243FE0182060437C494018027C21469E
:10F250007EA007F027FD1820604378494018817D83
:10F2600018206043754A8018427D18206043734B14
:10F27000C018007D019202910090182060431F4643
:10F28000C019C37C18206043C019827C18206043D9
:10F29000C019417C77A007F005FD182161433A466B
:10F2A0008918084610300722294607F06EFC00280E
:10F2B00007D1214696A007F0F5FC346000200390AA
:10F2C00002E0641C072CBDD300BF039805B0F0BD5D
:10F2D000F8B505460C46164697480768217897A06A
:10F2E00007F0E0FC324621462846B847F8BD10B585
:10F2F0000446002010BDFEB504460E469BA007F054
:10F30000D1FCA1786A46764805F02BFF0546002D12
:10F3100061D160780C2148433C494018807A4021F3
:10F320000840402801D0022E06D16278A17898A02A
:10F3300007F0B8FCA64F0EE0012E06D16278A17846
:10F34000A4A007F0AFFCB24F05E06278A178B14805
:10F3500007F0A8FCB04FA07818225043374A811814
:10F36000002318226846B8470546002D20D1022EFA
:10F370001ED060780C21484324494018807A4021EF
:10F38000884361780C225143204A8918887260783A
:10F390001C225043A14A811818231C226846B847F2
:10F3A0000546002D04D0A1782A469DA007F07AFCDE
:10F3B000022E10D020780C2148435F494018807AF3
:10F3C0008000A7490A582146684690470546002D07
:10F3D00001D0294646E148E15B444D5D3A20496E43
:10F3E000697469616C697A696E6720436F6E6E65D6
:10F3F0006374696F6E20496E7374616E636520304B
:10F4000078253038582E0D0A00000000942E002078
:10F410005B444D5D3A20496E697469616C697A6933
:10F420006E67205065657220496E7374616E636506
:10F43000203078253038582E0D0A0000C42D0020C9
:10F44000A82D0020FFFF0000438000005B444D5DBD
:10F450003A5B4449203078253032585D3A20446583
:10F46000766963652074797065203078253032586C
:10F470002E0D0A005B444D5D3A2044657669636554
:10F48000204164647220307825303258203078254D
:10F4900030325820307825303258203078253032BC
:10F4A0005820307825303258203078253032582E88
:10F4B0000D0A00005B444D5D3A20416C6C6F636146
:10F4C0007465642064657669636520696E73746130
:10F4D0006E6365203078253032580D0A0000000038
:10F4E000642800205B444D5D3A5B44492030782518
:10F4F0003032585D3A2046726565696E6720496E04
:10F500007374616E63652E0D0A0000003C72020088
:10F510005B444D5D3A20466F756E64206465766984
:10F52000636520617420696E7374616E6365203059
:10F5300078253032580D0A00A02E00205B444D5D26
:10F540003A204E6F74696679696E67206170706CDD
:10F5500069636174696F6E206F66206576656E748D
:10F56000203078253032580D0A0000005B444D5D94
:10F570003A202D2D3E206465766963655F636F6E6A
:10F58000746578745F73746F72650D0A0000000013
:10F590005B444D5D3A5B444920253032585D3A5B0F
:10F5A000434920253032585D3A202D3E2055706465
:10F5B0006174696E6720626F6E64696E6720696E40
:10F5C000666F726D6174696F6E2E0D0A0000000027
:10F5D000D35202005B444D5D3A5B444920253032F2
:10F5E000585D3A5B434920253032585D3A202D3E24
:10F5F0002053746F72696E6720626F6E64696E6704
:10F6000020696E666F726D6174696F6E2E0D0A00EF
:10F6100009520200B0740200EFF201006C2E0020CB
:10F620005B444D5D3A5B3078253032585D3A466137
:10F63000696C656420746F2073746F726520626FEB
:10F640006E6420696E666F726D6174696F6E2C20D6
:10F65000726561736F6E203078253038580D0A005E
:10F66000B8710200B2A007F01DFB002D03D029469F
:10F67000BDA007F017FBFEBDFEB507460C460620F1
:10F680000290C6A007F00EFB61780C225143CB4AD2
:10F6900089180889032302AA6946AADF0546002DB6
:10F6A00070D161780C225143C54A8918081D6946FA
:10F6B0000A8907F06AFA00281BD1A178C1A007F0D7
:10F6C000F1FA60780C214843BC494018807A022145
:10F6D0000840022856D06178C9A007F0E3FA6078A4
:10F6E0000C214843B6494018002101604160816007
:10F6F00048E060780C214843B1490858002805D0FB
:10F70000A178CDA007F0CEFAD84E04E0A178D8A019
:10F7100007F0C8FAE14E6946098960780C22504327
:10F72000A74A115061780C225143A54A8918081D37
:10F7300069460A8907F0F0F961780C225143A04A22
:10F7400088180C2107F08AF860780C2358439C4BEA
:10F750001A58A178D2A007F0A5FA60780C2250437D
:10F76000974A811834230C223846B0470546002DAD
:10F7700005D0A1782A46D4A007F094FA02E0E2A0CE
:10F7800007F090FA0020FEBD70B504460D46EAA0D1
:10F7900007F088FA002070BDF8B505460C46A2783F
:10F7A0006178EDA007F07EFA61780C225143844A1B
:10F7B000881834230C22294605F0F0FD0646002E59
:10F7C00020D160780C2778437D4F3B586178F04812
:10F7D0006A6807F067FA61780C2251433A46881844
:10F7E0000C2107F03BF860780C2148433946085853
:10F7F000401C00280BD1002160780C2250433A466F
:10F80000115004E061783246E2A007F04BFA30462E
:10F81000F8BD70B504460D46EDA007F043FA002090
:10F8200070BDF8B5044600260027F1A007F03AFAAB
:10F8300060780C21484362490B5860780C2148439A
:10F840005E494018827A607801460090F0A007F087
:10F8500029FA60780C21484359490858002822D0D9
:10F8600060780C21484355494018807A802108402F
:10F87000802818D160780C21484350494018807A7C
:10F880004021084040280ED0EDA007F00BFA607828
:10F890000C2148434A494018061D60780C21484312
:10F8A0004749085A87B261780C225143434A891864
:10F8B000088903233A463146A9DF0546002D04D0C6
:10F8C0002946E7A007F0EEF9F34D2846F8BD10B53C
:10F8D0000446F2A007F0E6F9002010BD70B504461A
:10F8E000F6A007F0DFF921780C225143FE4A89186F
:10F8F000081D052106F0B2FF22780C235A43FA4B6B
:10F90000D218111D62780C235A432C4BD21810893F
:10F910007EDF0546002D09D120780C214843F249AD
:10F920004018407A012108432178DFE1FFE100001F
:10F930005B444D5D3A204661696C656420746F20BC
:10F9400073746F7265207365727669636520636F87
:10F950006E746578742C20726561736F6E2025302B
:10F9600038580D0A000000005B444D5D3A204661A6
:10F97000696C656420746F2073746F7265206465B0
:10F980007669636520636F6E746578742C20726588
:10F9900061736F6E20253038580D0A005B444D5D51
:10F9A0003A202D2D3E2067617474735F636F6E740F
:10F9B0006578745F73746F72650D0A00942E002071
:10F9C000882E00205B444D5D3A5B307825303258FC
:10F9D0005D3A204E6F206368616E676520696E2016
:10F9E000474154545320436F6E7465787420696E98
:10F9F000666F726D6174696F6E2E0D0A00000000F3
:10FA00005B444D5D3A5B3078253032585D3A205288
:10FA10006573657474696E6720474154545320665A
:10FA20006F722061637469766520696E7374616EAC
:10FA300063652E0D0A0000005B444D5D3A5B307833
:10FA4000253032585D3A205570646174696E6720C4
:10FA500073746F7265642073657276696365206381
:10FA60006F6E746578740D0A00000000D3520200B6
:10FA70005B444D5D3A5B3078253032585D3A205317
:10FA8000746F72696E67207365727669636520634F
:10FA90006F6E746578740D0A000000000952020050
:10FAA0005B444D5D3A5B3078253032585D3A2047F3
:10FAB0004154545320446174612073697A65203045
:10FAC00078253038580D0A005B444D5D3A5B30783C
:10FAD000253032585D3A4661696C656420746F2048
:10FAE00073746F7265207365727669636520636FE6
:10FAF0006E746578742C20726561736F6E20307837
:10FB0000253038580D0A00005B444D5D3A2053659E
:10FB1000727669636520636F6E746578742073759F
:10FB2000636365737366756C6C792073746F72654B
:10FB3000642E0D0A000000005B444D5D3A202D2D1F
:10FB40003E2067617474635F636F6E746578745F81
:10FB500073746F72650D0A005B444D5D3A5B4349F7
:10FB6000203078253032585D3A5B44492030782582
:10FB70003032585D3A202D2D3E2067617474735FDA
:10FB8000636F6E746578745F6C6F61640D0A00005A
:10FB9000C87502005B444D5D3A5B253032585D3AD2
:10FBA000204661696C656420746F206C6F6164200D
:10FBB0005365727669636520636F6E746578742C23
:10FBC00020726561736F6E20253038580D0A000071
:10FBD0005B444D5D3A202D2D3E2067617474635F58
:10FBE000636F6E746578745F6C6F61640D0A0000FA
:10FBF0005B444D5D3A202D2D3E2067617474735F28
:10FC0000636F6E746578745F6170706C790D0A0053
:10FC10005B444D5D3A5B4349203078253032585D76
:10FC20003A205374617465203078253032582C2086
:10FC300053697A65203078253038580D0A00000065
:10FC40005B444D5D3A2053657474696E672073742C
:10FC50006F72656420636F6E746578742E0D0A0090
:10FC60005B444D5D3A204661696C656420746F2089
:10FC70007365742073797374656D2061747472692F
:10FC800062757465732C20726561736F6E203078B5
:10FC9000253038582E0D0A00418000005B444D5D30
:10FCA0003A202D2D3E2067617474635F636F6E741C
:10FCB0006578745F6170706C790D0A005B444D5D0E
:10FCC0003A20496E6974696174696E672061757460
:10FCD00068656E7469636174696F6E2072657175B1
:10FCE0006573740D0A000000A02E00200C22514301
:10FCF000FC4A8918487260780C214843FA49401838
:10FD0000807A0421084361780C225143F64A89180D
:10FD1000887260780C21484311464018807A20216F
:10FD2000884361780C225143EF4A8918887228462B
:10FD300070BD0146002901D1EC487047FF200870D2
:10FD400048708870C8700020F7E7FFB591B01D4675
:10FD500000BFE4480068002801D115B0F0BD00BF25
:10FD60001A985C2800D9F8E7012007900DA8FFF742
:10FD7000E0FF064600BF3746002F06D000BF002236
:10FD800011463846FDF7B6F900BF00BF002108A8AC
:10FD9000017501760C951A980B90002712E0B9B204
:10FDA00008AAD34805F0DDF90646002E09D108223D
:10FDB00008A9119806F0E9FE002802D108A98F755C
:10FDC00002E07F1C072FEAD300BF08A8807DFF2830
:10FDD0007ED0129804280AD11A985C2803D12020DA
:10FDE00008A90876B2E0402008A90876AEE0C1492B
:10FDF000681A182106F066FE0446072C1DD20AA8D0
:10FE00000F901398002810D108A9887D0121814006
:10FE1000B94A12681140002901D0012100E00021F7
:10FE2000002902D10020079090E008A9887D01F008
:10FE3000EAFE202008A9087688E0B049681A1C214B
:10FE400006F040FE0446002C20D108A8427D817DAA
:10FE5000ABA006F027FF0AA80F90202108A8017682
:10FE6000447500200490B24905911C206043A349C9
:10FE70004018019008A8807D182148439D494018EA
:10FE8000029001A80C9018200B905FE0A949681A15
:10FE90000C2106F017FE0446002C27D108A8427D4D
:10FEA000817DA5A006F0FEFE302108A801764475EC
:10FEB0000121C1750C2060438B494018807A0221D2
:10FEC0000840022842D008A8427D817DA64800E073
:10FED00060E006F0E7FE08A8407D0C214843954904
:10FEE000401800210160416081602FE008A8427D38
:10FEF000817D9EA006F0D6FE00200790402108A834
:10FF00000176A548854204D1042012900120079073
:10FF10001CE008A8807D8000A0490858A84215D19F
:10FF2000012007900AA80F9000200CE008A98A7D04
:10FF30000C2141436C4BC918C97A8A4202D108AAE4
:10FF4000507502E0401C0028F0D000BF079801283F
:10FF500020D11298042806D108A9087E032108435D
:10FF600008A908760FE01298032806D108A9087E90
:10FF70000121084308A9087605E008A9087E0221A6
:10FF8000084308A908760AA80F900EA90DA8139A8D
:10FF9000FFF79EF900BFE0E6F0B587B0064680A007
:10FFA00006F080FE002E02D1504807B0F0BD0024BC
:10FFB00013E000BF21467FA006F074FE00210C2054
:10FFC0006043484A11500C206043801841720C2055
:10FFD00060438018817200BF641C002CE9D00024AB
:10FFE00003E02046FFF72CF8641C002CF9D05148A0
:10FFF0000021016041608160002403E02046FFF79A
:020000040002F8
:100000003CF8641C072CF9D35C2168460183072166
:10001000418375480590364905A805F009F805465D
:10002000002D5BD10120714908703078002856D12D
:100030002F4841686EA006F035FE00240AE1A1B207
:1000400003AA2B4805F08DF80546002D48D121461E
:100050006FA0049A06F026FE18216143254A8818ED
:100060000023182203A905F099F90546002D08D0B0
:100070002A462146704806F015FE00205B490870AC
:10008000EBE0182060431B494018027C21466B4876
:1000900006F008FE1820604316494018817D18209C
:1000A0006043144A8018427D18206043114BC018E9
:1000B000007D019202910090182060431F46C019F4
:1000C000C37C18206043C019827C18206043C0198B
:1000D000417C5A48283006F0E5FDBAE0CBE0BDE0AF
:1000E000AEE00000A02E0020942E00200E80000024
:1000F00064280020C42D00206C2800206C2E0020D5
:100100005B444D5D3A5B3078253032585D3A5B3068
:1001100078253032585D3A20426F6E6420636F6EEE
:1001200074657874204576656E740D0A00000000D1
:10013000AC2E0020882E00205B444D5D3A5B307869
:10014000253032585D3A5B3078253032585D3A20A0
:100150005365727669636520636F6E746578742089
:100160004576656E740D0A00647402005B444D5D53
:100170003A5B3078253032585D3A5B307825303242
:10018000585D3A2041707020636F6E7465787420FA
:100190004576656E740D0A00E8710200A82D0020F6
:1001A0005B444D5D3A203E3E20646D5F696E69742C
:1001B0002E0D0A005B444D5D3A20496E69746961F9
:1001C0006C697A696E67204170706C6963617469EB
:1001D0006F6E20496E7374616E63652030782530D0
:1001E00038582E0D0A0000004BFD01007028002039
:1001F0005B444D5D3A2053746F726167652068619E
:100200006E646C65203078253038582E0D0A000059
:100210005B444D5D3A5B3078253032585D3A204280
:100220006C6F636B2068616E646C6520307825307C
:1002300038582E0D0A000000147302004CF401001F
:100240002A462146EA4806F02DFD0020E9490870BB
:1002500003E0641C072C00D2F1E610E06A46108B24
:10026000528B504381B2E44805F009F90546E3A0FA
:1002700006F018FD03E02946EFA006F013FDFEA0EE
:1002800006F010FD284690E670B505460C4600BF06
:10029000D8480078002801D1FC4870BD00BF002D6F
:1002A00002D1FA48801DF8E7002C02D1F748801DE2
:1002B000F3E72068002802D1F448801DEDE7F4A0A0
:1002C00006F0F0FCF8480068002812D1F7A006F00C
:1002D000E9FCF549206808600522611DF248001D0F
:1002E00006F01AFC2079F049887200202870002658
:1002F00001E0E64E361FF7A006F0D4FC3046CCE70E
:10030000F8B5044600BFBB480078002801D1DF489B
:10031000F8BD00BF002C02D1DC48801DF8E700BF0B
:100320002078012806DA20780C214843DE49085855
:10033000002801D1D548EBE700BF00BF6078012855
:1003400007DA60780C214843E8494018807A012890
:1003500002D1CE480830DBE700BFE5A006F0A2FCE2
:10036000CA4D60780C214843E0494018807A022148
:10037000084002286BD1A078FF2807D160780C21B3
:100380004843DA494018C07AFF281BD060780C2116
:100390004843D6494018C07AA07063781C2673433E
:1003A000DC4E9A1963781C267343DA4E9B19194662
:1003B000123163780C267343CC4E9B19188981DF68
:1003C000054644E060780C225043C84A81186846CC
:1003D000FEF79DFE0546002D38D16846017860780D
:1003E0000C225043C14A8018C17268460078A07040
:1003F00020780C214843AC494018407AC007C00F10
:1004000000281FD0C4A006F04DFC60780C214843A2
:10041000B6494018807A2021084361780C22514364
:10042000B24A8918887220780C2148439E494018A6
:10043000407A0221084321780C2251439A4A8918B4
:10044000487203E02046FFF749FA054600BF2946F7
:10045000B7A006F027FC28465AE770B504460D46BB
:1004600000BF64480078002801D1884870BD00BFF3
:10047000002C02D18548801DF8E7002D02D1834869
:10048000801DF3E700BF2078012806DA20780C21D0
:10049000484385490858002801D17C48E6E700BF59
:1004A00000BF6078012807DA60780C2148438F4943
:1004B0004018807A012802D174480830D6E700BF7E
:1004C000A6A006F0EFFB60780C214843874940184E
:1004D000807A04210840002809D160780C21484323
:1004E00082494018807A20210840002802D001204B
:1004F00028700EE060780C2148437C494018807ACF
:1005000080210840002802D00220287001E000204D
:1005100028709BA006F0C6FB0020A7E7F8B50746A9
:100520000C4600BF33480078002801D15748F8BD79
:1005300000BF002F02D15548801DF8E7002C02D1E2
:100540005248801DF3E72068002802D14F48801DE3
:10055000EDE7A068002802D14C48801DE7E700BF06
:100560003878012806DA38780C2148434E49085873
:10057000002801D14548DAE700BF8AA006F092FBC7
:10058000002500260020009000BF34E100210091EA
:1005900000BF12E00C224A43544BD218D27A824256
:1005A0000AD10C224A43D218927A02231A40022A14
:1005B00002D10122009202E0491C0029EAD000BFCA
:1005C0000099002912D1217BB14210D91821414351
:1005D0007C4A8918C97DC907C90F002907D118218C
:1005E00041438918B300A268D150EDE002E1ECE08C
:1005F000D072020070280020642800205B444D5D0A
:100600003A205375636365737366756C6C792072F9
:10061000657175657374656420636C656172206FC4
:10062000662070657273697374656E74206461749A
:10063000612E0D0A000000005B444D5D3A204661CA
:10064000696C656420746F20726567697374657284
:1006500020776974682073746F72616765206D6FAD
:1006600064756C652C20726561736F6E203078251F
:100670003038582E0D0A00005B444D5D3A203C3C5A
:1006800020646D5F696E69742E0D0A000880000099
:100690005B444D5D3A203E3E20646D5F7265676944
:1006A000737465722E0D0A00A02E00205B444D5D10
:1006B0003A204170706C69636174696F6E20496E95
:1006C0007374616E636520616C6C6F6361746564E3
:1006D0002E0D0A005B444D5D3A203C3C20646D5F6A
:1006E00072656769737465722E0D0A00942E00207E
:1006F0005B444D5D3A203E3E20646D5F73656375DB
:10070000726974795F73657475705F7265710D0AD3
:10071000000000006C2E00205B444D5D3A204D61CE
:10072000726B65642070656E64696E670D0A000007
:100730005B444D5D3A203C3C20646D5F736563759E
:10074000726974795F73657475705F7265712C205E
:100750003078253038580D0A000000005B444D5DAC
:100760003A203E3E20646D5F7365637572697479EB
:100770005F7374617475735F7265710D0A000000B8
:100780005B444D5D3A203C3C20646D5F736563754E
:10079000726974795F7374617475735F7265710DDA
:1007A0000A0000005B444D5D3A203E3E20646D5FD0
:1007B00077686974656C6973745F63726561746589
:1007C0000D0A0000C42D0020761C2179A94211D900
:1007D00018214143FE4A8918C97D0222114000298F
:1007E00008D118214143FA4A89181031AB00226818
:1007F000D1506D1C401C072800D2C7E62571267316
:100800002A463146F34806F04DFAF3A006F04AFABC
:1008100000208CE60246F848704770B5044600BFD9
:10082000F6480078002802D1F348883870BD00BF30
:10083000002C02D1F0488238F8E700BF2078012868
:1008400006DA20780C214843ED490858002802D1E7
:10085000E9488838EAE700BF00BFA078072807DA30
:10086000A07818214843DA494018C07DFF2802D1FA
:10087000E1488038DAE700BFE2A006F013FAA0787A
:10088000FEF7B2FC0546E6A006F00CFA2846CDE7D6
:1008900070B5044600BFD9480078002802D1D64878
:1008A000883870BD00BF002C02D1D3488238F8E7E9
:1008B00000BF2078012806DA20780C214843D0496F
:1008C0000858002802D1CC488838EAE700BF002643
:1008D000DAA006F0E7F900250BE018206843BC49D0
:1008E0004018C07DFF2803D02846FEF77DFC064651
:1008F0006D1C072DF1D3D9A006F0D4F93046D0E70E
:10090000FEB504460D4600BFBC480078002802D161
:10091000B9488838FEBD00BF002C02D1B6488238E5
:10092000F8E7002D02D1B4488238F3E700BF207801
:10093000012806DA20780C214843B14908580028DC
:1009400002D1AD488838E5E700BF00BF60780128D4
:1009500007DA60780C214843C8494018807A01289A
:1009600002D1A5488038D5E700BF00BFA07807288E
:1009700007DAA0781821484395494018C07DFF2820
:1009800002D19D488038C5E700BFBDA006F08AF9B6
:10099000E868002812D0A86800280FD0A8680628A8
:1009A0000CD22878012809D163780C277B43BD4FEE
:1009B000DB19181DAA68E96806F0AEF8A1786A4646
:1009C000B94804F0CEFB064628788000B7490A589B
:1009D0002146684690470646B5A006F063F93046C2
:1009E00098E77CB504460D4600BF8448007800288F
:1009F00002D1814888387CBD00BF002C02D17E48DE
:100A00008238F8E7002D02D17B488238F3E700BF37
:100A10002078012806DA20780C21484378490858C4
:100A2000002802D174488838E5E700BF00BFA078ED
:100A3000072807DAA0781821484365494018C07D87
:100A4000FF2802D16C488038D5E700BF60780C21C0
:100A500048438A494018807A02210840022805D07C
:100A60009CA006F01FF96448401CC4E7A6A006F04D
:100A700019F9E868002812D1A86806280FD228784A
:100A800001280CD160780C21484386494018001D8C
:100A9000E86060780C21484382490958A960A17830
:100AA0006A46814804F05DFB0646287880009F492D
:100AB0000A5821466846904706469DA006F0F2F87F
:100AC000304698E710B5044600BF4C48007800282F
:100AD00002D14948883810BD00BF002C02D14648D9
:100AE0008238F8E700BF2078012806DA20780C2148
:100AF000484343490858002802D13F488838EAE76C
:100B000000BF00BFA078072807DAA0781821484363
:100B10002F494018C07DFF2802D137488038DAE7D6
:100B200000BF8CA006F0BEF83348D4E7FEB50446FB
:100B30000D4600BF31480078002802D12E48883881
:100B4000FEBD00BF002C02D12B488238F8E7002DF3
:100B500002D129488238F3E7A868002802D1264844
:100B60008238EDE700BF2078012806DA20780C21D2
:100B7000484323490858002802D11F488838DFE736
:100B800000BF00BFA078072807DAA07818214843E3
:100B90000F494018C07DFF2802D117488038CFE7A1
:100BA00000BF6868042801D20720C9E775A006F0D5
:100BB00079F87E4FA1786A463B4804F0D2FA06469F
:100BC000002E03D1442304226946F1E01BE100001A
:100BD000C42D0020387502005B444D5D3A203C3C3A
:100BE00020646D5F77686974656C6973745F6372A4
:100BF000656174650D0A0000908000007028002077
:100C0000A02E00205B444D5D3A203E3E20646D5F87
:100C10006465766963655F64656C6574650D0A007B
:100C20005B444D5D3A203C3C20646D5F64657669B1
:100C300063655F64656C6574650D0A005B444D5DBA
:100C40003A203E3E20646D5F6465766963655F644B
:100C5000656C6574655F616C6C0D0A005B444D5D8D
:100C60003A203C3C20646D5F6465766963655F642F
:100C7000656C6574655F616C6C0D0A00942E0020D4
:100C80005B444D5D3A203E3E20646D5F7365727635
:100C90006963655F636F6E746578745F7365740D07
:100CA0000A000000882E002064280020B87102008D
:100CB0005B444D5D3A203C3C20646D5F7365727609
:100CC0006963655F636F6E746578745F7365740DD7
:100CD0000A0000005B444D5D3A2044657669636517
:100CE000206D75737420626520636F6E6E6563742A
:100CF000656420746F2067657420636F6E74657817
:100D0000742E200D0A0000005B444D5D3A203E3EEB
:100D100020646D5F736572766963655F636F6E747F
:100D20006578745F6765740D0A000000C871020081
:100D30005B444D5D3A203C3C20646D5F7365727688
:100D40006963655F636F6E746578745F6765740D62
:100D50000A0000005B444D5D3A20436F6E74657875
:100D6000742064656C657465206973206E6F7420EF
:100D7000737570706F72746564207965742E0D0AD6
:100D8000000000005B444D5D3A203E3E20646D5FF4
:100D90006170706C69636174696F6E5F636F6E74AC
:100DA0006578745F7365740D0A00000009520200D3
:100DB00002A804F0F3FA0646002E0BD10298401C5C
:100DC000002807D0F64FA1786B68F648029A05F024
:100DD00069FF02E0F4A005F065FF44230422291D09
:100DE0006846B8470646002E0DD1482314226846AF
:100DF000A96804F06EFA0646002E04D1A178890095
:100E0000F34AA8685050F3A005F04CFF304697E62F
:100E1000FEB504460D4600BFF8480078002801D111
:100E2000F748FEBD00BF002C02D1F548801DF8E751
:100E3000002D02D1F248801DF3E700BF2078012881
:100E400006DA20780C214843EE490858002801D1E1
:100E5000EB48E6E700BF00BFA078072807DAA078D4
:100E600018214843E8494018C07DFF2802D1E448D2
:100E70000830D6E700BFE5A005F014FFA8680028F9
:100E800005D1A0788000D2490858A86004E0A17874
:100E90008900CF4AA8685050A1786A46E54804F016
:100EA00060F90646002E1AD144230422694602A89E
:100EB00004F074FA0646002E0FD10298401C002858
:100EC0000BD0482314226946A86804F067FA064646
:100ED000002E04D10298686001E0C94E3836D6A0D1
:100EE00005F0E0FE30469CE73EB5044600BFC3482F
:100EF0000078002801D1C2483EBD00BF002C02D1BD
:100F0000BF48801DF8E700BF2078012806DA207866
:100F10000C214843BB490858002801D1B848EBE7E9
:100F200000BF00BFA078072807DAA078182148433F
:100F3000B5494018C07DFF2802D1B1480830DBE731
:100F400000BFC7A005F0AEFEA1786A46B94804F01C
:100F500008F90546002D1DD144230422694602A844
:100F600004F01CFA05460298401C002812D04423C5
:100F70000422C649684604F0ACF90546002D04D0A9
:100F80002946C3A005F08EFE04E00020A178890068
:100F90008F4A5050CDA005F085FE2846ACE70246AA
:100FA00000BF96480078002801D19548704700BFDF
:100FB000002902D19248801DF8E7002A02D190480A
:100FC000801DF3E700BF1078012806DA10780C23A3
:100FD00058438C4B1858002801D18948E6E700BFD8
:100FE000107808700020E1E770B504460D4600BF98
:100FF00082480078002801D1814870BD00BF002CD4
:1010000002D17F48801DF8E7002D02D17C48801D69
:10101000F3E700BF2078012806DA20780C21484346
:1010200078490858002801D17548E6E700BF00BF9D
:10103000A078072807DAA078182148437249401899
:10104000C07DFF2802D16E480830D6E700BFAAA0B5
:1010500005F028FE6078FF281CD12878022819D0D6
:10106000A17818225143684A89180846103007228F
:10107000294605F051FDA07801218140A54A12685A
:101080001143A44A116000BF02212046FEF733F944
:10109000002601E05A4E761E9FA005F003FE304662
:1010A000ABE770B504460E4600BF544800780028F0
:1010B00001D1534870BD00BF002C02D15048801DA3
:1010C000F8E7002E02D14E48801DF3E700BF2078DC
:1010D000012806DA20780C2148434A49085800289C
:1010E00001D14748E6E700BF92A005F0DBFD444D83
:1010F000ED1EA078FF281BD16078FF2832D06078E1
:101100000C21484392494018807A02210840022865
:1011100028D161788F4805F0C5FD60780C225043D6
:101120008B4A81180722304605F0F6FC002519E0AD
:10113000A0781821484334494018C07D0221084056
:1011400000280FD1A17884A005F0ACFDA07818226A
:1011500050432D4A8018014610310722304605F0D1
:10116000DBFC002589A005F09DFD2846A2E770B5AF
:101170008AB005460C4600BF20480078002802D1FE
:101180001F480AB070BD00BF002D02D11C48801D51
:10119000F7E7002C02D11A48801DF2E704E10000B5
:1011A000D3520200587302005B444D5D3A205374E1
:1011B0006F72696E67206170706C69636174696FCA
:1011C0006E20636F6E746578742E0D0A0000000047
:1011D000A82D00205B444D5D3A203C3C20646D5FAF
:1011E0006170706C69636174696F6E5F636F6E7458
:1011F0006578745F7365740D0A0000007028002024
:1012000008800000A02E0020C42D00205B444D5D0E
:101210003A203E3E20646D5F6170706C696361745A
:10122000696F6E5F636F6E746578745F6765740D68
:101230000A000000642800205B444D5D3A203C3CDD
:1012400020646D5F6170706C69636174696F6E5F5B
:10125000636F6E746578745F6765740D0A000000D3
:101260005B444D5D3A203E3E20646D5F6170706C62
:1012700069636174696F6E5F636F6E746578745FC4
:1012800064656C6574650D0A00000000E871020079
:101290005B444D5D3A204661696C656420746F2043
:1012A00064656C657465206170706C6963617469F4
:1012B0006F6E20636F6E746578742C207265617335
:1012C0006F6E203078253038580D0A005B444D5D34
:1012D0003A203C3C20646D5F6170706C696361749E
:1012E000696F6E5F636F6E746578745F64656C655B
:1012F00074650D0A000000005B444D5D3A203E3EDF
:1013000020646D5F706565725F616464725F7365B0
:10131000740D0A006C2800205B444D5D3A203C3C73
:1013200020646D5F706565725F616464725F736590
:10133000740D0A005B444D5D3A203E3E20646D5FB3
:10134000706565725F616464725F6765740D0A0041
:10135000942E0020F47402005B444D5D3A5B4449D6
:10136000203078253032585D3A20416464726573CC
:10137000732067657420666F7220626F6E646564A7
:10138000206465766963652E0D0A00005B444D5D3F
:101390003A203C3C20646D5F706565725F616464F7
:1013A000725F6765740D0A0000BF2878012806DAAD
:1013B00028780C214843EC490858002801D1EB4813
:1013C000DFE600BF00BFA878072807DAA878182151
:1013D0004843E7494018C07DFF2802D1E348083060
:1013E000CFE600BFE3A005F05DFC00BF0020E06099
:1013F000E949216100216161A87818214843DC494D
:10140000401860600020A060A97801AAE34803F0BA
:10141000A8FE0646002E17D118231C2201A903A8F6
:1014200003F0BCFF0646002E0ED1E060DA492161D0
:1014300000216161A87818214843CD4940186060B7
:101440000020A06003A82060D5A005F02BFC30464A
:1014500097E6F3B593B00C46002600271398008852
:101460000B9000BFD7480078002801D115B0F0BD1F
:1014700000BF00BFBC480068002800D1F6E700BFED
:1014800010A8FEF756FC054600BF0A950A9D002DE0
:1014900006D000BF002211460A98FBF72BFE00BFC2
:1014A00000BF00200C900025201D0E902A216846C8
:1014B0008187FF2110A88170002101700020129007
:1014C0002088102813D0A08812AA0221FDF7FFFD62
:1014D0000546002D0BD10C2112984843BA494018FB
:1014E000C17A10A881701298C1B210A841702088EA
:1014F00017287CD006DC10280BD0112878D01328B0
:1015000077D1F9E0182875D01C2874D05228F7D16B
:1015100008E3207D02286FD112A800F07CFB05466D
:10152000002DF8D10126112108A801751298C1B229
:1015300010A84170A1880C2212985043A24A80182A
:10154000018102210C22129850439F4A8018817217
:101550000C22129951439C4A88180722A11D05F0BC
:10156000DBFA11A9A01DFDF759FE0546002D6CD12F
:101570001198C1B20C2212985043934A8018C1723C
:101580000C211298484311464018807A08210843DC
:101590000C22129951438C4A8918887210A911980B
:1015A0008870119881B203AA7C4803F0DAFD0546E1
:1015B000002D43D118201C2100910190129848431E
:1015C000824943188248049A129905F06BFB1C214A
:1015D000129848437D49401818231C2203A9029001
:1015E00003F0DCFE0546002D0BD02A4605E087E11E
:1015F0002CE0ABE225E2A1E227E076A0129905F00B
:1016000051FB342000900C21129848438049421825
:101610000C238048129905F045FB5348807A8000DE
:101620007D490A5810A903A890470546002D0BD004
:101630002A467AA0129905F035FB05E02B4687482B
:10164000119A129905F02EFB00BF80E2A1880B9839
:10165000814250D0A17982A005F024FB0C21129880
:10166000484359494018807A022188430C22129934
:101670005143554A891888720C21129848431146E3
:101680004018807A0821084008280ED10C211298B1
:10169000484311464018807A8021084080280FD1A5
:1016A000002110A8FDF727FE0AE010A88078FF2887
:1016B00006D010A98878FDF7E0FCFF2010A98870FB
:1016C0000C211298484340494018807A0421084070
:1016D000042805D101272448407AB843224948729A
:1016E00010210C2212985043374A8018817201262B
:1016F000122008A908752AE262A005F0D3FA002694
:10170000A079C007C00F0090607A4007C30F607ACD
:101710008007C20F607AC107C90F65A005F0C2FA41
:1017200000200890002109910A911C211298484339
:101730002649401805900C21129848432249401828
:10174000C07A182148430A494018069000200790A3
:10175000A08805AB002211467FDF0546002D01D091
:101760002946B9E0BDE00000A02E0020088000005E
:10177000C42D00205B444D5D3A203E3E20646D5FE9
:1017800064697374726962757465645F6B6579739B
:101790005F6765740D0A0000AC2E002064280020ED
:1017A0005B444D5D3A203C3C20646D5F646973741A
:1017B000726962757465645F6B6579735F67657480
:1017C0000D0A000070280020942E00206C2E0020AE
:1017D000BC7302005B444D5D3A5B253032585D3A84
:1017E000204661696C656420746F206C6F616420B1
:1017F000426F6E6420696E666F726D6174696F6EA0
:101800002C20726561736F6E20253038580D0A00E8
:10181000882E002018740200C87102005B444D5DE0
:101820003A5B253032585D3A204661696C65642028
:10183000746F206C6F6164207365727669636520D4
:10184000696E666F726D6174696F6E2C207265616E
:10185000736F6E20253038580D0A00008472020024
:101860005B444D5D3A20446973636F6E6E656374CB
:1018700020526561736F6E203078253034580D0A20
:10188000000000005B444D5D3A203E3E20424C4546
:101890005F4741505F4556545F5345435F50415247
:1018A000414D535F524551554553540D0A000000B8
:1018B0005B444D5D3A203078253032582C2030780A
:1018C000253032582C203078253032582C20307872
:1018D000253032580D0A0000ECA005F0E3F90C9514
:1018E0000DE00C2112984843F8494018807A0421F1
:1018F00008430C2212995143F44A8918887226E150
:10190000A179F3A005F0CEF9FD48407A40084000E7
:10191000FB4948720C2112984843EC494018807AE0
:10192000042188430C2212995143E84A891888728D
:10193000142008A9087501260127A079002802D0E3
:10194000A0790C907CE00621A01D04F087FF1C22EA
:1019500012995143EB4A88181C2104F07FFFE0796B
:101960004007C00F00286BD010A88078FF2867D0F0
:101970000C2112984843D5494018807A0821084321
:101980000C2212995143D14A89188872A07A800793
:10199000C00F00280FD010A8807818214843DA49DA
:1019A0004018C07D4108490010A880781822504393
:1019B000D54A8018C1750C2112984843C349401874
:1019C000C07AFF283CD010A88278D0A0129905F0E8
:1019D00069F90C2112984843BC49085C02282BD0B5
:1019E0000C22129850430A46811810A880781822B9
:1019F0005043C54A8018034610330722184605F0A5
:101A00008BF810A8807818214843BF494018C17D41
:101A10000220814310A8807818225043BA4A8018C7
:101A2000C17510A9897818225143B74A8918084608
:101A30001030072104F012FF012110A8FDF75BFC14
:101A400085E0A07902090107090FBA4805F02AF9D3
:101A5000A079000901283ED1A0790007000F0128D4
:101A600039D10C211298484398494018807A0821AE
:101A7000084008282FD10C2212995143AE4A8918E8
:101A8000081D062105F06FF8162008A90875012722
:101A90000C21129848438D494018807A2021084330
:101AA0000C2212995143894A891888720C21129884
:101AB000484311464018807A402108430C2212996D
:101AC0005143824A891888728D48407A022108431E
:101AD0008B49487222E00C21129848437B494018F8
:101AE000807A802108430C2212995143774A891841
:101AF0008872152008A908758148807A80008F4A6D
:101B0000115810A888470546002D07D010A88278E4
:101B100041788BA005F0C6F899480C9000200C90F5
:101B2000012614E097A005F0BDF87548807A800082
:101B3000824A115810A888470C9008E09CA005F034
:101B4000B1F8132008A90875012600E000BF00BF06
:101B5000002E1ED00DA910A80C9AFDF7B9FB08A8FD
:101B6000007D122815D100BF9AA0129905F09AF8AD
:101B70000C211298484355494018807A012806D014
:101B8000A0A0129905F08EF81298FDF759FA00BF3F
:101B900000BF002F35D05A48407A02210840022861
:101BA0002FD1A3A005F07EF809AA2021A648FDF7B1
:101BB0008EFA0546002D1AD1002108A80172099855
:101BC000C1B208A841720C21099848433F49401806
:101BD000C17A08A881720AA8FDF780FE054608A808
:101BE000827A417A2B4699A005F05CF808E0A7A01C
:101BF00005F058F84248407A02218843404948722B
:101C000000BF00BF32E401218140A64A12688A4326
:101C1000A4490A60704770B50446A3A005F042F8D5
:101C2000224601218848FDF752FA0546002D0BD1C6
:101C3000AAA0216805F036F802210C222068504342
:101C4000224A8018817203E0B0A005F02BF8042529
:101C5000284670BD70B504460D46B8A005F022F8C0
:101C6000002070BD70B505460E46BEA005F01AF8FE
:101C700031462846FDF700FD0446002C04D13146CC
:101C80002846FDF781FD0446204670BD5B444D5D4E
:101C90003A20536563757269747920706172616D61
:101CA00065746572207265706C79207265717565F6
:101CB0007374206661696C65642C20726561736F52
:101CC0006E203078253038582E0D0A00942E0020D2
:101CD0005B444D5D3A203E3E20424C455F474150BB
:101CE0005F4556545F415554485F535441545553D2
:101CF0002C2073746174757320253038580D0A00D8
:101D0000A02E00206C2E0020C42D00205B444D5DD1
:101D10003A5B4349203078253032585D3A5B44497C
:101D2000203078253032585D3A20426F6E64656409
:101D3000210D0A0084750200882E0020D87102004F
:101D40005B444D5D3A5B4349203078253032585D25
:101D50003A5B4449203078253032585D3A2046615C
:101D6000696C656420746F206170706C7920736594
:101D7000727669636520636F6E746578740D0A000E
:101D8000418000005B444D5D3A203E3E20424C4580
:101D90005F47415454535F4556545F5359535F4115
:101DA0005454525F4D495353494E470D0A000000A9
:101DB0005B444D5D3A203E3E20424C455F474150DA
:101DC0005F4556545F5345435F5245515545535403
:101DD0000D0A00005B444D5D3A5B43492030782595
:101DE0003032585D3A2046726565696E6720636FD0
:101DF0006E6E656374696F6E20696E7374616E6375
:101E0000650D0A005B444D5D3A5B253032585D3A02
:101E100020467265656420636F6E6E656374696FDA
:101E20006E20696E7374616E63652E0D0A0000008A
:101E30005B444D5D3A5175657565642072657175D9
:101E40006573740D0A000000FFFF00005B444D5DE8
:101E50003A5B4349203078253032585D3A5B44493B
:101E6000203078253032585D3A20536563757269A9
:101E70007479207265717565737420726573756C01
:101E800074203078253038580D0A00005B444D5DD1
:101E90003A4E6F7468696E672070656E64696E672C
:101EA000210D0A006C2800205B444D5D3A205265EC
:101EB000717565737420746F20616C6C6F636174ED
:101EC000696F6E20636F6E6E656374696F6E2069F3
:101ED0006E7374616E63650D0A0000005B444D5DB6
:101EE0003A5B253032585D3A20436F6E6E656374FD
:101EF000696F6E20496E7374616E636520416C6C0E
:101F00006F63617465642E0D0A0000005B444D5DD3
:101F10003A204E6F206672656520636F6E6E656352
:101F200074696F6E20696E7374616E63657320618E
:101F30007661696C61626C650D0A00005B444D5D01
:101F40003A202D2D3E206E6F5F7365727669636552
:101F50005F636F6E746578745F73746F72650D0A7A
:101F6000000000005B444D5D3A202D2D3E2067614E
:101F7000747473635F636F6E746578745F73746F8A
:101F800072650D0A0000000070B504460D461AA0E7
:101F900004F088FE002070BD70B505460E461FA0F7
:101FA00004F080FE31462846FDF7F6FB0446002C7F
:101FB00004D131462846FDF72CFC0446204670BD6E
:101FC00010B504461DA004F06DFE617825A004F054
:101FD00069FE002010BD70B505462CA004F062FE1D
:101FE0002846FDF71EFC0446002C03D12846FDF7C9
:101FF0006EFC0446204670BD5B444D5D3A202D2D9D
:102000003E206E6F5F736572766963655F636F6EA6
:10201000746578745F6C6F61640D0A005B444D5D9C
:102020003A202D2D3E206761747473635F636F6E79
:10203000746578745F6C6F61640D0A005B444D5D7C
:102040003A202D2D3E206E6F5F7365727669636551
:102050005F636F6E746578745F6170706C790D0A80
:10206000000000005B444D5D3A5B43492030782519
:102070003032585D3A204E6F205365727669636541
:1020800020636F6E746578740D0A00005B444D5DCB
:102090003A202D2D3E206761747473635F636F6E09
:1020A000746578745F6170706C790D0A00000000CF
:1020B00010B5B2480068B249096888423DD0AF48BF
:1020C000006814214843AF4940188078002810D197
:1020D000AA4A126814235A430B46D2189188A74A79
:1020E000126814235A43A74B985A002295DF0446DE
:1020F0000FE0A24A126814235A43A24BD218114689
:1021000008319E4A126814235A439E4B985A97DF0F
:102110000446002C0DD19CA004F0C4FD9748006833
:10212000401C96490860084600784007400F086048
:1021300002E0A14804F0B6FD00BF10BD70B5044632
:102140000D46FFF7B5FF70BDF8B504460D462E46A7
:102150000C363088A188884209D102216846017076
:10216000B179417069462046A268904700BFFFF7E9
:102170009FFFF8BD38B504460D46A889A18888425E
:1021800009D1012168460170A97C41706946204649
:10219000A268904700BF38BD38B5044620780028B3
:1021A0003DD1A0888549884239D1A079012836D10E
:1021B000608883490968088000251FE00C202946B3
:1021C000414320460A30405A7E49884214D10C20AF
:1021D0002946414320460A30081840897849096851
:1021E00048800C202946414320460A3008180089BF
:1021F00073490968888004E0681CC5B2207AA84247
:10220000DCDC00BF70A004F04DFD002069460870C2
:102210006B48006882686A480068904702E076A0D0
:1022200004F040FD38BDF7B50646154632468048F5
:10223000019904F037FD2F4651480068504909685C
:10224000491C4F4A1160142148434E494418104616
:1022500000784007400F1146086001996181022112
:10226000E181211D21610021A181012121722771BC
:10227000FF20000238400112617126800120A07009
:10228000FFF716FF0020FEBD38B504460D46002CB2
:1022900001D0002D01D10E2038BD0121684681708A
:1022A00046490180464804600020C043444909680B
:1022B00008800020424909684880414909688880AF
:1022C0003F492868096888605A49684601F001FE5C
:1022D000E2E770B505460C46002D01D0002C00D178
:1022E00070BD2088102806D0352814D037280DD08E
:1022F000382815D105E0207D022801D1A08828804A
:102300000FE021462846FFF735FF0AE02146284620
:10231000FFF714FF05E021462846FFF715FF00E010
:1023200000BF00BF00BFDBE710B50446002C01D1A1
:102330000E2010BD618820880122FFF774FFF8E7A6
:1023400070B504460E4800680D490968491C0C4ADE
:102350001160142148430B49451810460078400786
:10236000400F11460860A088A8802088288000209F
:10237000A870FFF79DFE002070BD00007C280020A3
:1023800078280020C42E00205B4241535F435D3A11
:1023900020534420526561642F577269746520414F
:1023A00050492072657475726E732053756363654E
:1023B00073732E2E0D0A0000107602000F18000015
:1023C00074280020192A00005B4241535F435D3AA4
:1023D0002042617474657279205365727669636511
:1023E00020646973636F7665726564206174207020
:1023F0006565722E0D0A00005B4241535F435D3AF2
:1024000020426174746572792053657276696365E0
:1024100020646973636F76657279206661696C7593
:10242000726520617420706565722E200D0A0000AF
:102430006C7602009921020010B59D4800689D4904
:10244000096888423DD09A480068142148439A4957
:1024500040188078002810D1954A126814235A43F6
:102460000B46D2189188924A126814235A43924B11
:10247000985A002295DF04460FE08D4A1268142313
:102480005A438D4BD21811460831894A12681423D9
:102490005A43894B985A97DF0446002C0DD187A0E8
:1024A00004F000FC82480068401C8149086008462E
:1024B00000784007400F086002E08C4804F0F2FB0F
:1024C00000BF10BD70B504460D46FFF7B5FF70BDE7
:1024D000F8B505460C46A089A988884221D1002676
:1024E0000220694608703146761C20461230405C56
:1024F0003040002807D13146761C20461230405C1F
:102500006946488008E021461231881901784278EE
:10251000120211436846418069462846AA689047DE
:1025200000BFF8BD38B50446207800283CD1A0880B
:102530006F49884238D1A079012835D160886D492A
:102540000968088000251EE00C20294641432046EA
:102550000A30405A6849884214D10C202946414328
:1025600020460A30081840896249096848800C20D2
:102570002946414320460A30081800895D49096808
:10258000888003E06D1C207AA842DDD800BF5BA0E4
:1025900004F088FB0120694608705648006882688C
:1025A00054480068904700BF38BD38B504460D4612
:1025B000002C01D0002D01D10E2038BD012168462C
:1025C00081704B4901804B4804604A49286809687A
:1025D00088600020C04347490968088000204549B9
:1025E000096848805249684601F073FCE5E770B518
:1025F00005460C46002D01D0002C00D170BD20886E
:10260000102804D037280DD0382810D105E0207DBF
:10261000022801D1A08828800AE021462846FFF739
:1026200057FF05E021462846FFF74CFF00E000BFBA
:1026300000BF00BFE2E7F7B50646154632463D4803
:10264000019904F02FFB2F461A48006819490968C0
:10265000491C184A11601421484317494418104670
:1026600000784007400F11460860019961810221FE
:10267000E181211D21610021A181012121722771A8
:10268000FF20000238400112617126800120A070F5
:10269000FFF7D2FE0020FEBD10B50446002C01D18C
:1026A0000E2010BD618820880122FFF7C4FFF8E7E3
:1026B0008828002084280020642F00205B48525383
:1026C0005F435D3A20534420526561642F5772691D
:1026D0007465204150492072657475726E73205381
:1026E0007563636573732E2E0D0A0000B4760200C5
:1026F0000D18000080280020372A00005B48525344
:102700005F435D3A204865617274205261746520B0
:102710005365727669636520646973636F76657269
:10272000656420617420706565722E0D0A000000DA
:102730002525020010770200F7B584B004460F4645
:1027400006980678B01C1F2803DC6078801C1F28C0
:1027500002DD0C2007B0F0BD1F20801B801E85B25B
:102760000295B11C781802A97DDF03900398002818
:1027700001D00398EEE72078022808D16846008946
:10278000A84204DC09200190684605890BE0082076
:1027900001906078002804D06078A84201DC657858
:1027A00001E068460589681CC2B23046711CCEB291
:1027B0003A543046721CD6B20199395406980178C1
:1027C000A81C0818C1B2069801700020C2E7F8B52D
:1027D00005460C462078001D1F2801DD0C20F8BDA1
:1027E000684679DF0646002E01D03046F7E7032120
:1027F0002278501C2070A95419212278501C207076
:10280000A954207841196846008800F05EFA2178C2
:10281000401820700020E2E730B503461078C01C55
:102820001F2801DD0C2030BD02241578681C1070B3
:102830004C550A241578681C10704C551578681C86
:1028400010704B550020EEE7FFB587B006461D46D9
:10285000109C0020069020780590002747E0B900E2
:10286000706841180A8868460281498841810022BF
:1028700003A902A865DF04900498002802D00498F8
:102880000BB0F0BD6846017B099881422ED10698B5
:10289000002801D0002000E0022001902078694645
:1028A000097B4118019808181F2801DD0C20E7E773
:1028B0000698002809D12078401C20702278511CED
:1028C00008982170A854012006902078421903A985
:1028D00002A865DF04900498002801D00498CFE78F
:1028E00020786946097B4018207000BF7F1C308823
:1028F000B842B4DC0698002806D021780598401C20
:10290000081AC1B2059829540020B9E7FFB581B073
:10291000074615460A9E009602223846049B0299F5
:10292000FFF792FF0446002C02D0204605B0F0BD10
:102930000096102229463846049BFFF785FF04467F
:10294000002C01D02046F1E70020EFE7014608887F
:10295000062808DB08881922D201904205DD088884
:10296000DE4A904201D0072070474888062808DBDD
:1029700048881922D201904205DD4888D74A904202
:1029800001D00720F0E70888D44A904208D0488850
:10299000904205D008884A88904201DD0720E3E78D
:1029A0000020E1E7F8B506460D4614462078801D64
:1029B0001F2801D90C20F8BD3046FFF7C7FF074696
:1029C000002F01D03846F6E705212278501C2070F0
:1029D000A95412212278501C2070A9542278511930
:1029E000308800F072F9217840182070227851194F
:1029F000708800F06AF92178401820700020DAE72A
:102A0000F8B505460E4614462879801CC7B22078D2
:102A1000801CC0191F2801DD0C20F8BD781CC1B234
:102A20002278501C2070B154FF212278501C207055
:102A3000B15422789119288800F047F9217840187C
:102A40002070A88800280EDDA868002801D1072082
:102A5000E3E7AA8823789819A96804F05DF820783C
:102A60002979401820700020D7E7FEB507460E46AA
:102A70001446B86A002801D10720FEBD002001904D
:102A800032E0B96A0C22019850430D182879801C55
:102A9000C0B200900098401CC1B22278501C207037
:102AA000B15416212278501C2070B154227891190B
:102AB000288800F00AF9217840182070A88800289A
:102AC0000EDDA868002801D10720D6E7AA88237860
